:08000000803102288731F12F45
:10088A0021009D14080016302100970008000B0C67
:10089A00890C013908005A30210099009801080092
:1008AA00F100710884317524080021001C08F10048
:1008BA001B08F0000800FE0012001E00FE0B612C4F
:1008CA000034031021009D1C03140030093D080068
:1008DA00013021009D00F0309E009B019C01080020
:1008EA00F0002000111E762C700823009A000800E0
:1008FA000A34003400340034003400340034003444
:10090A002000911E852C23009D1C8D2C9D139D1764
:10091A0019080800083023009F0090309D002430F9
:10092A009E0019309B009C010800F000700823000B
:10093A0091001513951315140000000023001308E5
:10094A000800F1007108F000F00DF00D21001D08FB
:10095A007006833970069D001D14080021001508D1
:10096A00C039123895000630200095000630F00094
:10097A007008CD000B110800F100F0013A30710245
:10098A000318CD2C30307102031CCD2CF001F00A73
:10099A00700C08008431E12484318431502484317C
:1009AA0084314824843184316D2484318431B324E0
:1009BA00843184318F24080022008C018E013F305B
:1009CA0021008C003F308E000F3023008E0017303C
:1009DA008C00283024008C008E01210095132200FF
:1009EA009E019D010800F401F501701C002D72089A
:1009FA00F4077308F53D0130F235F30D890B012D2B
:100A0A000130F136F00C890B062D70087104031DB4
:100A1A00FA2C7508F1007408F0000800F100F201E0
:100A2A00710823009100700893009513151315158A
:100A3A0000308B1B0130F2008B1355309600AA3020
:100A4A00960095149518272D1511720C031C8B13FB
:100A5A0003188B170800780879040319572DFD012C
:100A6A00FD0AF91B422D0130F835F90D890B392D94
:100A7A000130FC007C08FD07362D79087B02031D36
:100A8A00482D78087A02031C4E2D7808FA02790854
:100A9A00FB3B0130F936F80C890B4F2D0130FD0272
:100AAA00031D422D7B08F9007A08F8000800F501B9
:100ABA00F6017008710403198B2DF701F70AF11B6F
:100ACA00702D0130F035F10D890B672D0130F400DE
:100ADA007408F707642D0130F535F60D890B712D71
:100AEA0071087302031D7B2D70087202031C822D8C
:100AFA007008F2027108F33B75140130F136F00CFC
:100B0A00890B832D0130F702031D702D7608F10041
:100B1A007508F00008000130F3020030F43B730A54
:100B2A000319740A0319CB2D700884007108850013
:100B3A0012000319AB2D7208860087017008840021
:100B4A0071088500000801060319C22D7208860083
:100B5A0087010108F500F601F509F609F50A0319F6
:100B6A00F60A700884007108850000087507F0000D
:100B7A0076080318760AF10008000130F007003001
:100B8A00F13D0130F5007508F207902DF001F101F1
:100B9A000800FD007D088600870120300106031D3C
:100BAA00DB2D0130F8007808FD07CF2D7D0886007F
:100BBA008701093001060319D62DFB01FC01FA0150
:100BCA007D08860087012D300106031DF12D0130B5
:100BDA00F8007808FA07F82D7D08860087012B307F
:100BEA000106031DFC2D0130F8007808FD077D0879
:100BFA008600870101088431C1248531031C212E16
:100C0A007C08F1007B08F0000A30F2000030F300A3
:100C1A008431F82485317D08860087010108700730
:100C2A00F80071080318710AF9007808D03EFB0031
:100C3A00FF30793DFC00F82D7A080319302E7B0924
:100C4A00F8007C09F900F80A0319F90A7808F6008D
:100C5A007908F70008007C08F7007B08F60008000E
:100C6A0022302000A4002408A80020002108A500A2
:100C7A002008A400A00A0319A10A24088400250850
:100C8A0085000008A6002608AD002D0803190800F3
:100C9A0025302D060319562E2D0884315524863108
:100CAA003A2E2000A9012108A5002008A400A00AC4
:100CBA000319A10A24088400250885000008AD004C
:100CCA00003A0319EB2E643A03196F2E0D3A0319F1
:100CDA006F2E3A2E280886008701403FAB00413F1D
:100CEA00AC000230A4002408A807AC1F852E0330EC
:100CFA00A4002408A904AB09AC09AB0A0319AC0A7D
:100D0A00AD01AD0A05302D060319AA2E2D08A4003F
:100D1A00A501A435A50D0030240784008830253D9F
:100D2A008500003FA600013FA70027082C02031DEB
:100D3A00A02E26082B02031CAA2E0130A400240888
:100D4A00AD0705302D06031D8B2E2908033903191B
:100D5A00B22E2D3084315524863120002D08A4006E
:100D6A002408AA00FF302000A4002408AA072A0A9F
:100D7A0003193A2E0A30F8000030F9002A08A400B4
:100D8A00A501A435A50D0030240784008830253D2F
:100D9A008500003FF000013FF1002C08F3002B080A
:100DAA00F20085315C2586317108FB007008FA0073
:100DBA008531302586317808303E2000A600260885
:100DCA00AD002D08843155248631B72E08008431B0
:100DDA00CF24863145308600003087002F308400CA
:100DEA000030850008302000AE0016001A00AE0B55
:100DFA00FA2EC201003084319A2486312000AE00D6
:100E0A002E08C000013084319A2486312000AE00B9
:100E1A002E08C100C301C30A2000911E782F843115
:100E2A00852486312000AE002E08BF003F08AE00A0
:100E3A0042082F3E860087012E0881000130AE004D
:100E4A002E08C2070A303F06031D782F42082F3E9C
:100E5A00860087018101C2011930F0008830F10053
:100E6A002F30AE002E08F2000230F3000030F400FA
:100E7A0085319025863170087104031D532F313056
:100E8A008531CE25863176082000AE002E08C000B6
:100E9A004008AE002E08F0000030752F1630F00022
:100EAA008830F1002F302000AE002E08F200023008
:100EBA00F3000030F4008531902586317008710402
:100ECA00031D782F31308531CE25863176082000F2
:100EDA00AE002E08C1004108AE002E08F000013015
:100EEA0085311325863184314C248631003A031921
:100EFA00112F0B1101302000AE002E08CE0740083A
:100F0A004E02031C112FCE01C301C30AC4010430CF
:100F1A0044020318C82F430841050319B52F440892
:100F2A000A3E840088300318013E85000008843197
:100F3A00A62486318431452486318431662486315B
:100F4A00003A0319A22F84315A24863120004435ED
:100F5A00373E860087017008C03F7108C13FBC2F29
:100F6A004435373E860087010030C03FC13F4335D4
:100F7A00AE002E08C3000130AE002E08C4070430AC
:100F8A004402031C902FC401033044020318E52FC6
:100F9A001230A0008830A1004435373E8600870110
:100FAA00403FA200413FA3008631352686310130F9
:100FBA002000AE002E08C40703304402031CCD2FC4
:100FCA000E30A0008830A1003E08A3003D08A20010
:100FDA00863135268631112F7D3084008430850094
:100FEA004530860000308700083084316024CE0105
:100FFA0020008631EC2E013400340A340034643483
:10100A000034E83403341034273402340434053409
:10101A000634253464340A340034253464342C34D8
:0E102A00003466343A34003474343A340034FE
:020000040001F9
:04000E00E4FFFFFF0D
:00000001FF
