:0400000080312428FF
:100008007E14803120007F08F1000B1F1528210085
:10001800111E15282000111E15288131A6218031B6
:100028001F280B1F1F282100911E1F282000911E2A
:100038001F288131C32171082000FF007E100900AC
:1000480080312628FA01FB01373084000030850012
:100058001430823156227E1020008031EB2828305F
:100068002000AA002A08AE0020002708AB002608B6
:10007800AA00A60A0319A70A2A0884002B088500E3
:100088000008AC002C08B300330803190800253019
:100098003306031954283308823162228031382804
:1000A8002000AF012708AB002608AA00A60A0319FA
:1000B800A70A2A0884002B0885000008B300003A24
:1000C8000319EA28643A03196D280D3A03196D28B3
:1000D80038282E0886008701403FB100413FB20012
:1000E8000230AA002A08AE07B21F83280330AA00EC
:1000F8002A08AF04B109B209B10A0319B20AB30157
:10010800B30A053033060319A8283308AA00AB013F
:10011800AA35AB0D3D302A07840082302B3D85007F
:10012800003FAC00013FAD002D083202031D9E28A0
:100138002C083102031CA8280130AA002A08B3079A
:1001480005303306031D89282F0803390319B02801
:100158002D3082316222803120003308AA002A081B
:10016800B000FF302000AA002A08B007300A03199F
:1001780038280A30A0000030A1003008AA00AB01DE
:10018800AA35AB0D3D302A07840082302B3D85000F
:10019800003FF200013FF3003208F5003108F40097
:1001A80081312221803173082000A3007208A20047
:1001B80081315621803120002008303EAC002C08C7
:1001C800B3003308823162228031B52808008231B9
:1001D800102280318B170B17823170228031003A40
:1001E8000319F0280B1101302000B4003408CA07A5
:1001F80004304A02031CF028CA010330823130223D
:10020800803182317822803182314F228031003A28
:100218000319082982315C22803173082000B60056
:100228007208B5006C30A6008230A7003608A90015
:100238003508A800803133208031F028F701F80113
:100248007208730403195129F901F90AF31B3629B5
:100258000130F235F30D890B2D290130F6007608AF
:10026800F9072A290130F735F80D890B3729730862
:100278007502031D412972087402031C482972087B
:10028800F4027308F53B77140130F336F20C890B4E
:1002980049290130F902031D36297808F300770847
:1002A800F200080020002008210403197E29A50176
:1002B800A50AA11B69290130A035A10D890B602968
:1002C8000130A4002408A5075D2921082302031D85
:1002D8006F2920082202031C75292008A202210880
:1002E800A33B0130A136A00C890B76290130A50269
:1002F800031D69292308A1002208A0000800F300B3
:1003080020004C08031984292100111A8F29730829
:1003180023009A00A32911127308F2007B083F3EBC
:1003280086008701720881000130F2007208FB071D
:1003380008307B020318FB0101302000CC022100A9
:1003480011160800083020004C020318C0297A084A
:100358003F3E86008701010823009A000130F00023
:100368007008FA0708307A020318FA010130F00021
:1003780070082000CC070800210011120800230093
:100388009D1CC8291D121D161908F00020004908D7
:10039800373E86008701700881000130F000700840
:1003A800C907083049020318C9010130F000700874
:1003B800C7070800210091121112083023009F007E
:1003C80080309D0004309E0019309B009C01FB0189
:1003D800FA010830F20072082000CC00C901C801F7
:1003E800C70121009116080022008C018E013F30C0
:1003F80021008C003F308E000F3023008E00173014
:100408008C003F3024008C003F308E002100951373
:1004180022009E019D0108008131F821823182313C
:1004280067228231823174228231823147228231BD
:100438008231222282318131DE2108002100150813
:10044800C039173895000C30200095000C30F200A8
:100458007208CB000B110800F3007308F200F20DCC
:10046800F20D21001D087206833972069D001D14C5
:100478000800013400340A34003464340034E834A9
:10048800033410342734013021009D00C0309E0011
:100498009B019C010800031021009D1C03140030DF
:1004A800093D0800640080010131890B572A003496
:1004B80021001C08F3001B08F2000800F40074086F
:1004C8008131832108005A302100990098010800E1
:1004D800253464340A3400340B0C890C01390800C3
:0E04E800163021009700080021009D14080026
:020000040001F9
:04000E00E4FFFFFF0D
:00000001FF
