:0400000080312428FF
:100008007E14803120007F08F1000B1F1528210085
:10001800111E15282000111E1528833184238031D4
:100028001F280B1F1F282100911E1F282000911E2A
:100038001F288331BC2371082000FF007E100900AF
:10004800803126285A308400843085004930860063
:10005800003087000830843179248031FA01FB01AF
:100068003530840000308500143084317F247E10C0
:10007800200080313F288431092480318B170B17E9
:100088004930860000308700B03084000030850099
:1000980008302000B40016001A00B40B4F282100C5
:1000A800BA0100308431442480312000B40034087F
:1000B8002100BB0001308431442480312000B40089
:1000C80034082100B900BC01BC0A833147238031C0
:1000D8002000B40034082100B80038082000B4001B
:1000E80021003A08B03E86008701200034088100CC
:1000F8000130B40034082100BA070A303806031D5D
:10010800E1283A08B03E860087018101BA01B03083
:1001180082311A22803178082000B4003408210086
:10012800BB00A830F2008430F300B0302000B400E7
:100138003408F4000230F5000030F60082318522E0
:10014800803172087304031DBA28B23082311A2232
:10015800803178082000B40034082100BB003B0837
:100168002000B4003408F2000030DE28A530F20088
:100178008430F300B0302000B4003408F4000230BA
:10018800F5000030F6008231852280317208730450
:10019800031DE128B23082311A228031780820000C
:1001A800B40034082100B90039082000B40034082C
:1001B800F200013083316723803184319D248031FE
:1001C800003A031969280B1101302000B4003408E3
:1001D800C50721003B0820004502031C6928C5010A
:1001E8002100BC01BC0ABD0108303D0203183029BA
:1001F8003C083905031920293D08623E84008430F3
:100208000318013E85000008843137248031843189
:10021800AB248031843172248031003A03190E29CD
:1002280084318524803121003D35A03E8600870138
:100238007208C03F7308C13F3C352000B400340841
:100248002100BC0001302000B40034082100BD07A3
:1002580008303D02031CFC28BD0107303D0203188D
:10026800512999302000A6008430A70021003D358F
:10027800A03E86008701403F2000A800413FA9001A
:1002880081316221803101302000B400340821001E
:10029800BD0707303D02031C352995302000A60014
:1002A8008430A70021002F082000A90021002E0873
:1002B8002000A8008131622180316928283020007F
:1002C800AA002A08AE0020002708AB002608AA00CA
:1002D800A60A0319A70A2A0884002B088500000823
:1002E800AC002C08B3003308031908002530330686
:1002F80003198329330884318B248131672920002D
:10030800AF012708AB002608AA00A60A0319A70A06
:100318002A0884002B0885000008B300003A031956
:10032800192A643A03199C290D3A03199C2967294B
:100338002E0886008701403FB100413FB2000230DD
:10034800AA002A08AE07B21FB2290330AA002A0859
:10035800AF04B109B209B10A0319B20AB301B30A69
:10036800053033060319D7293308AA00AB01AA358B
:10037800AB0D50302A07840084302B3D8500003FA8
:10038800AC00013FAD002D083202031DCD292C0819
:100398003102031CD7290130AA002A08B307053007
:1003A8003306031DB8292F0803390319DF292D3017
:1003B80084318B24813120003308AA002A08B00038
:1003C800FF302000AA002A08B007300A031967295D
:1003D8000A30A0000030A1003008AA00AB01AA35FD
:1003E800AB0D50302A07840084302B3D8500003F38
:1003F800F200013FF3003208F5003108F4008231C1
:10040800C322813173082000A3007208A200823140
:10041800F722813120002008303EAC002C08B300C0
:10042800330884318B248131E42908002000A50099
:1004380025088600870120300106031D282A01307F
:10044800A0002008A5071C2A250886008701093076
:1004580001060319232AA301A401A2012508860085
:1004680087012D300106031D3E2A0130A000200817
:10047800A207452A2508860087012B300106031D9F
:10048800492A0130A0002008A50725088600870111
:10049800010884311B248231031C702A200024089F
:1004A800F3002308F2000A30F4000030F50083312D
:1004B800A1238231200025088600870101087207E0
:1004C800A00073080318730AA1002008D03EA300F7
:1004D800FF30213DA400452A200022080319802A64
:1004E8002309A0002409A100A00A0319A10A2008D1
:1004F800F8002108F90008002408F9002308F8008A
:1005080008000130F5020030F63B750A0319760A37
:100518000319C02A720884007308850012000319A1
:10052800A02A740886008701720884007308850071
:10053800000801060319B72A740886008701010814
:10054800F700F801F709F809F70A0319F80A720819
:1005580084007308850000087707F20078080318FC
:10056800780AF30008000130F2070030F33D01304B
:10057800F7007708F407852AF201F3010800F8016B
:10058800F901720873040319F22AF701F70AF31B39
:10059800D72A0130F235F30D890BCE2A0130F60047
:1005A8007608F707CB2A0130F835F90D890BD82AD8
:1005B80073087502031DE22A72087402031CE92AF3
:1005C8007208F4027308F53B78140130F336F20C24
:1005D800890BEA2A0130F702031DD72A7908F300AC
:1005E8007808F200080020002008210403191F2BB6
:1005F800A501A50AA11B0A2B0130A035A10D890B65
:10060800012B0130A4002408A507FE2A2108230293
:10061800031D102B20082202031C162B2008A202FF
:100628002108A33B0130A136A00C890B172B013000
:10063800A502031D0A2B2308A1002208A000080018
:10064800F300200052080319252B2100111A302B22
:10065800730823009A00442B11127308F2007B08D8
:100668003D3E86008701720881000130F200720861
:10067800FB0708307B020318FB0101302000D2027F
:10068800210011160800F30123001D16200046085A
:1006980003194A2B4708353E860087010108F200F6
:1006A8007208F3000130F2007208C70708304702E9
:1006B8000318C7012100911201302000C602210051
:1006C800911673080800F300F401730823009100E1
:1006D8007208930095131513151500308B1B013004
:1006E800F4008B1355309600AA309600951495188F
:1006F8007B2B1511740C031C8B1303188B17080024
:1007080008302000520203189E2B7A083D3E8600CE
:100718008701010823009A000130F0007008FA07E9
:1007280008307A020318FA010130F000700820003E
:10073800D2070800210011120800F601F701721C07
:10074800A92B7408F6077508F73D0130F435F50D47
:10075800890BAA2B0130F336F20C890BAF2B7208E8
:100768007304031DA32B7708F3007608F200080032
:1007780023009D1CC12B1D121D161908F000200016
:100788004808353E86008701700881000130F00076
:100798007008C807083048020318C8010130F00083
:1007A8007008C607080021009112111208302300B2
:1007B8009F0080309D0004309E0019309B009C01F2
:1007C800FB01FA010830F20072082000D200C801CB
:1007D800C701C60121009116080022008C018E0174
:1007E8003F3021008C003F308E000F3023008E00F8
:1007F80017308C00283024008C0030308E00210007
:10080800951322009E019D0108008331F123843154
:100818008431902484318431A12484318431292481
:10082800843184316A2484318331D7230800F3006A
:10083800F2013A3073020318272C30307302031C7C
:10084800272CF201F20A720C080021001508C039A1
:10085800123895000630200095000630F200720824
:10086800D1000B110800F3007308F200F20DF20D2D
:1008780021001D087206833972069D001D140800A8
:10088800F200720823009100151395131514000047
:100898000000230013080800013400340A3400342F
:1008A80064340034E8340334103427340A34003410
:1008B800003400340034003400340034003401348F
:1008C800023403340434053406340734013021007B
:1008D8009D00F0309E009B019C0108000310210040
:1008E8009D1C03140030093D0800FE0012001E0084
:1008F800FE0B7A2C0034640080010131890B802CB6
:10090800003421001C08F3001B08F2000800F40062
:1009180074088331242308005A3021009900980173
:100928000800253464340A340034253464342C3403
:1009380000340B0C890C013908001630210097008F
:10094800080066343A34003474343A3400342100F0
:040958009D140800E2
:020000040001F9
:04000E00E4FFFFFF0D
:00000001FF
