:0400000080312428FF
:100008007E14803120007F08F1000B1F1528210085
:10001800111E15282000111E1528833166238031F2
:100028001F280B1F1F282100911E1F282000911E2A
:100038001F2883319E2371082000FF007E100900CD
:10004800803126283C308400843085005F3086006B
:10005800003087000830843153248031FA01FB01D5
:100068004B308400003085001430843159247E10D0
:10007800200080313F288331EB2380318B170B1709
:100088005F308600003087003D30840000308500F6
:1000980008302000B40016001A00B40B4F28C7011E
:1000A80000308431262480312000B4003408C80090
:1000B80001308431262480312000B4003408C60081
:1000C800C901C90A8331292380312000B4003408CA
:1000D800C5004508B40047083D3E8600870134083E
:1000E80081000130B4003408C7070A304506031DF3
:1000F800D32847083D3E860087018101C7013D306E
:100108008131FC21803178082000B4003408C8000F
:100118008630F2008430F3003D30B4003408F40037
:100128000230F5000030F600823167228031720813
:100138007304031DAE283F308131FC2180317808DB
:100148002000B4003408C8004808B4003408F2009D
:100158000030D0288330F2008430F3003D30200096
:10016800B4003408F4000230F5000030F6008231A3
:100178006722803172087304031DD3283F30813110
:10018800FC21803178082000B4003408C6004608F5
:10019800B4003408F20001308331492380318431BE
:1001A8007B248031003A031966280B1101302000A6
:1001B800B4003408DB0748085B02031C6628DB012F
:1001C800C901C90ACA0104304A0203181B2949088F
:1001D800460503190F294A086F3E84008430031826
:1001E800013E850000088431192480318431892436
:1001F800803184314C248031003A0319FD28843140
:100208005F24803120004A35353E86008701720818
:10021800C03F7308C13F4935B4003408C9000130F4
:10022800B4003408CA0704304A02031CEB28CA0188
:1002380003304A02031838297730A6008430A70013
:100248004A35353E86008701403FA800413FA90056
:1002580081314421803101302000B4003408CA07BC
:1002680003304A02031C20297330A6008430A700FB
:100278003C08A9003B08A800813144218031662848
:1002880028302000AA002A08AE0020002708AB006A
:100298002608AA00A60A0319A70A2A0884002B0818
:1002A80085000008AC002C08B300330803190800C7
:1002B80025303306031965293308843165248131D3
:1002C80049292000AF012708AB002608AA00A60A82
:1002D8000319A70A2A0884002B0885000008B30020
:1002E800003A0319FB29643A03197E290D3A0319C8
:1002F8007E2949292E0886008701403FB100413FE9
:10030800B2000230AA002A08AE07B21F94290330AF
:10031800AA002A08AF04B109B209B10A0319B20A3E
:10032800B301B30A053033060319B9293308AA0003
:10033800AB01AA35AB0D32302A07840084302B3D3F
:100348008500003FAC00013FAD002D083202031DBF
:10035800AF292C083102031CB9290130AA002A0848
:10036800B30705303306031D9A292F0803390319EB
:10037800C1292D3084316524813120003308AA0039
:100388002A08B000FF302000AA002A08B007300A67
:10039800031949290A30A0000030A1003008AA003A
:1003A800AB01AA35AB0D32302A07840084302B3DCF
:1003B8008500003FF200013FF3003208F5003108E4
:1003C800F4008231A522813173082000A30072084D
:1003D800A2008231D922813120002008303EAC00B1
:1003E8002C08B3003308843165248131C6290800FC
:1003F8002000A50025088600870120300106031D7E
:100408000A2A0130A0002008A507FE292508860031
:100418008701093001060319052AA301A401A201D5
:100428002508860087012D300106031D202A01308A
:10043800A0002008A207272A2508860087012B305C
:100448000106031D2B2A0130A0002008A507250856
:100458008600870101088331FD238131031C522A5C
:1004680020002408F3002308F2000A30F4000030CA
:10047800F500833183238131200025088600870118
:1004880001087207A00073080318730AA100200866
:10049800D03EA300FF30213DA400272A20002208D7
:1004A8000319622A2309A0002409A100A00A03193C
:1004B800A10A2008F8002108F90008002408F9001A
:1004C8002308F80008000130F5020030F63B750AF1
:1004D8000319760A0319A22A720884007308850092
:1004E80012000319822A74088600870172088400A2
:1004F80073088500000801060319992A7408860004
:1005080087010108F700F801F709F809F70A031944
:10051800F80A720884007308850000087707F2005B
:1005280078080318780AF30008000130F207003051
:10053800F33D0130F7007708F407672AF201F30169
:100548000800F701F801720873040319D42AF901A5
:10055800F90AF31BB92A0130F235F30D890BB02AD9
:100568000130F6007608F907AD2A0130F735F80DA5
:10057800890BBA2A73087502031DC42A720874020B
:10058800031CCB2A7208F4027308F53B7714013078
:10059800F336F20C890BCC2A0130F902031DB92A73
:1005A8007808F3007708F2000800200020082104EA
:1005B8000319012BA501A50AA11BEC2A0130A035BE
:1005C800A10D890BE32A0130A4002408A507E02A1D
:1005D80021082302031DF22A20082202031CF82AFC
:1005E8002008A2022108A33B0130A136A00C890BE8
:1005F800F92A0130A502031DEC2A2308A1002208CC
:10060800A0000800F300200068080319072B210048
:10061800111A122B730823009A00262B1112730843
:10062800F2007B08533E8600870172088100013082
:10063800F2007208FB0708307B020318FB01013047
:100648002000E802210011160800F30123001D16FE
:1006580020005C0803192C2B5D084B3E860087019F
:100668000108F2007208F3000130F2007208DD0799
:1006780008305D020318DD012100911201302000CD
:10068800DC022100911673080800F300F4017308D6
:100698002300910072089300951315131515003067
:1006A8008B1B0130F4008B1355309600AA3096004E
:1006B800951495185D2B1511740C031C8B130318D6
:1006C8008B1708000830200068020318802B7A086E
:1006D800533E86008701010823009A000130F0008C
:1006E8007008FA0708307A020318FA010130F0009E
:1006F80070082000E8070800210011120800F60120
:10070800F701721C8B2B7408F6077508F73D01304A
:10071800F435F50D890B8C2B0130F336F20C890B6F
:10072800912B72087304031D852B7708F300760854
:10073800F200080023009D1CA32B1D121D1619088A
:10074800F00020005E084B3E86008701700881009B
:100758000130F0007008DE0708305E020318DE0181
:100768000130F0007008DC07080021009112111216
:10077800083023009F0080309D0004309E0019300F
:100788009B009C01FB01FA010830F200720820006E
:10079800E800DE01DD01DC012100911608002200DD
:1007A8008C018E013F3021008C003F308E000F30CD
:1007B80023008E0017308C00283024008C00303045
:1007C8008E002100951322009E019D0108008331AF
:1007D800D323833184316A24833184317F24833164
:1007E80084310B2483318431442483318331B92308
:1007F8000800F300F2013A3073020318092C303074
:100808007302031C092CF201F20A720C0800210081
:100818001508C039123895000630200095000630BA
:10082800F2007208E7000B110800F3007308F200E9
:10083800F20DF20D21001D087206833972069D0023
:100848001D140800F2007208230091001513951377
:1008580015140000000023001308080001340034B8
:100868000A34003464340034E83403341034273450
:100878000A340034003400340034003400340034C6
:10088800013021009D00F0309E009B019C01080072
:10089800031021009D1C03140030093D0800FE00D0
:1008A80012001E00FE0B542C00346400800101313C
:1008B800890B5A2C003421001C08F3001B08F20095
:1008C8000800F40074088331062308005A30210018
:1008D800990098010800023404340534063425349C
:1008E80064340A340034253464342C3400340B0C5A
:1008F800890C013908001630210097000800663479
:100908003A34003474343A34003421009D14080019
:020000040001F9
:04000E00E4FFFFFF0D
:00000001FF
